:100000000C944B000C9468000C9468000C946800ED
:100010000C9468000C9468000C9468000C946800C0
:100020000C9468000C9468000C9468000C946800B0
:100030000C9468000C9468000C9468000C946800A0
:100040000C9468000C9468000C9468000C94680090
:100050000C94680005A84CCDB2D44EB93836A9022C
:100060000C50B9918688083CA6AAAA2ABE000000B6
:10007000803F0664EC1B3C04BC163E3BE5B93CC922
:100080003C37C29E5A3D660498083EEA69AAAA3ED9
:10009000000000803F0011241FBECFE5D4E0DEBF8A
:1000A000CDBF13E0A0E6B0E0E6E3F3E302C00590C5
:1000B0000D92AC33B107D9F723E0ACE3B3E001C054
:1000C0001D92A635B207E1F70E944D140C949919C0
:1000D0000C9400008F929F92AF92BF92CF92DF92CA
:1000E000EF92FF92CF93DF93FC01C484D584E68422
:1000F000F784FB0184849584A684B784A5019401C8
:10010000C701B6010E94EA1487FD0EC0D1E0C0E02D
:10011000A5019401C701B6010E948D1618160CF0B6
:10012000D0E08D2F9C2F02C08FEF9FEFDF91CF91FA
:10013000FF90EF90DF90CF90BF90AF909F908F9007
:10014000089520E432E4AC01429FC001439F900D2A
:10015000529F900D112401970C943E145F926F9260
:100160007F928F929F92AF92BF92CF92DF92EF9247
:10017000FF920F931F93CF93DF935C01622E502E5B
:10018000D62FC42F122F161BF02EF41A113820F080
:10019000119577247A9402C07724739480E88F15A0
:1001A00018F4F1940FEF01C001E0E12EEF18CF2C0D
:1001B000D12CD194C194D108812E912CD61102C09A
:1001C000C515F9F0D7FD0CC0C03450F44C2F6D2F7D
:1001D000C5010E94BC134C2F6D2FC5010E94BC139A
:1001E0008E2D880F990B082E000C990BC816D90676
:1001F00014F4EF18D70D8815990504F7E10EC00F18
:10020000DDCFDF91CF911F910F91FF90EF90DF90A5
:10021000CF90BF90AF909F908F907F906F905F90A6
:1002200008952F923F924F925F926F927F928F929A
:100230009F92AF92BF92CF92DF92EF92FF920F9375
:100240001F93CF93DF9300D000D000D0CDB7DEB79F
:100250006C017B015E834D8319012801261B370B3E
:10026000390137FF04C066247724621A730AC20179
:100270004D815E81841B950B4C0197FF04C088243F
:100280009924881A990A37FD05C021E030E03A83A5
:10029000298304C04FEF5FEF5A83498397FD05C060
:1002A00081E090E09C838B8304C02FEF3FEF3C8381
:1002B0002B83830108191909AA24BB24A818B9089B
:1002C000E214F30429F44D815E814415550569F16A
:1002D00050E8E516F10478F48D819E818034910513
:1002E00050F44D816E2DC6010E94BC134D816E2DC0
:1002F000C6010E94BC13C801880F991FA816B90631
:1003000034F40819190929813A81E20EF31E861581
:100310009705B4F6060D171D4D815E818B819C817A
:10032000480F591F5E834D83CBCF26960FB6F894A6
:10033000DEBF0FBECDBFDF91CF911F910F91FF9018
:10034000EF90DF90CF90BF90AF909F908F907F9075
:100350006F905F904F903F902F900895EF92FF9293
:100360000F931F93F901EE19FF09DC01EA9FC00109
:10037000EB9F900DFA9F900D1124E61AF70AE49E68
:10038000F001E59EF00DF49EF00D11248E0F9F1FDD
:10039000621B730B609F9001619F300D709F300D49
:1003A0001124820F931F1F910F91FF90EF900895DA
:1003B0004F925F926F927F928F929F92AF92BF9275
:1003C000CF92DF92EF92FF920F931F93CF93DF9321
:1003D000CDB7DEB7DA016B887C88A9014E195F09B9
:1003E000489F2001499F500C589F500C1124F70141
:1003F000E61BF70BEA9FA001EB9F500DFA9F500DF3
:100400001124440E551EFB01E21BF30BE09FA001DB
:10041000E19F500DF09F500D1124440D551D57FDC7
:1004200070C0A7014A195B09489F2001499F500CE1
:10043000589F500C1124F501E61BF70BE09FA0011B
:10044000E19F500DF09F500D1124440E551EFB01ED
:10045000EE19FF09EC9DA001ED9D500DFC9D500D86
:100460001124440D551D57FD4CC0A50146195709CF
:10047000489F8001499F100D589F100D1124F301D2
:10048000E61BF70BEC9DA001ED9D500DFC9D500D62
:100490001124400F511F8B010A191B09089DF001FF
:1004A000099DF00D189DF00D11244E0F5F1F57FD93
:1004B00028C0F901E61BF70BE89DA001E99D500D4E
:1004C000F89D500D1124F301E21BF30BE89F9001FE
:1004D000E99F300DF89F300D1124CA01820F931F40
:1004E000661977096A9F90016B9F300D7A9F300DD6
:1004F0001124820F931F892F8095881F8827881FBA
:1005000001C080E090E0DF91CF911F910F91FF90AB
:10051000EF90DF90CF90BF90AF909F908F907F90A3
:100520006F905F904F9008954F925F926F927F927D
:100530008F929F92AF92BF92CF92DF92EF92FF92F3
:100540000F931F93CF93DF9300D000D0CDB7DEB7CA
:10055000E216F3060407150709F447C045015601E2
:10056000E982FA820B831C8369017A012B013C0129
:10057000CA01B9010E949E159B01AC01C301B201E1
:100580000E947D142B013C018F89988DA98DBA8D15
:10059000BC01CD01681979098A099B090E949E1541
:1005A0009B01AC01C301B2010E9492162B013C01D8
:1005B00069817A818B819C816C197D098E099F09E3
:1005C0000E949E159B01AC01C301B2010E94F4146C
:1005D0002B013C01C501B4010E949E159B01AC0199
:1005E000C301B2010E947E1403C060E070E0CB0141
:1005F0000F900F900F900F90DF91CF911F910F915F
:10060000FF90EF90DF90CF90BF90AF909F908F9032
:100610007F906F905F904F9008958F929F92AF92CE
:10062000BF92EF92FF920F931F93281B390B061B6B
:10063000170BE41AF50A229FB001239F700D700D6D
:100640001124009FC001019F900D900D1124680F8F
:10065000791F072E000C880B990B0E949E154B01E9
:100660005C01EE9CB001EF9C700D700D1124072E03
:10067000000C880B990B0E949E159B01AC01C501D3
:10068000B4010E947E141F910F91FF90EF90BF90D4
:10069000AF909F908F9008952F923F924F925F92CC
:1006A0006F927F928F929F92AF92BF92CF92DF9282
:1006B000EF92FF920F931F93CF93DF93CDB7DEB7E7
:1006C000C255D1090FB6F894DEBF0FBECDBFDA0117
:1006D000261737072CF0CB016217730724F001C0EF
:1006E000C901AB0101C0A9010A171B072CF02D019C
:1006F000A017B10724F001C02801FD0101C0F801D5
:100700003701AE14BF040CF435016B827C826B8020
:100710007C808615970514F49C838B838B819C8148
:10072000803891050CF02EC336018C149D040CF416
:100730003401C201641475040CF4C30180349105C2
:100740000CF020C32701EA14FB040CF425014D82B0
:100750005E824D805E804416550614F45E834D83A0
:100760004D805E8057FC0EC32601C814D9040CF4DA
:100770002401A2014E165F060CF4AF0157FD02C31F
:100780004D805E805EA64DA6F201E138F10524F0B1
:10079000E0E8F0E0FEA7EDA75AA349A341345105D4
:1007A00024F040E450E05AA349A34B805C80588673
:1007B0004F8257FE02C018861F82988F8F8B97FF3B
:1007C00002C0188E1F8A621773072CF07CA36BA3DC
:1007D0003A8F298F04C03CA32BA37A8F698FAE1464
:1007E000BF042CF4F8A2EF8EBC8EAB8E04C0B8A26E
:1007F000AF8EFC8EEB8E9C868B86BEAEADAEDA865F
:10080000C986FCAEEBAE1A8309833AAF29AF1D014E
:1008100078AF6FAB8F819885EB80FC808E199F0934
:1008200027E0289F8001299F100D11241E8F0D8F16
:10083000ED80FE800F2C000C000B110BEFA6F8AA28
:1008400009AB1AABEB80FC800F2C000C000B110BDA
:10085000EF86F88A098B1A8BE98CFA8C0F2C000C26
:10086000000B110BEDA2FEA20FA318A7EB8CFC8CC2
:100870000F2C000C000B110BE9A6FAA60BA71CA766
:100880000BA11CA1C801110FAA0BBB0B7C018D0190
:100890002DA13EA14FA158A5E21AF30A040B150B96
:1008A0002B96ECAEFDAE0EAF1FAF2B97EFA4F8A8C2
:1008B00009A91AA92F85388949895A89E21AF30AA0
:1008C000040B150BEBAAFCAA0DAB1EAB4F8C58A06A
:1008D000C201550CAA0BBB0B7C018D0129A53AA5C1
:1008E0004BA55CA5E21AF30A040B150B2F96ECAE90
:1008F000FDAE0EAF1FAF2F977301770C000B110BDE
:100900006396ECAEFDAE0EAF1FAF63970F811885F7
:100910004DA45EA4041515050CF034C26F88788CC4
:100920007E866D868BA19CA1E98CFA8C8E199F091D
:100930002C01990F6608770823964CAE5DAE6EAE1B
:100940007FAE23978F8D98A16B8C7C8C861997092D
:100950007C01990F000B110B2796ECAEFDAE0EAF8C
:100960001FAF27970D851E8549A05AA004151505B0
:100970000CF0F1C16F807884B301770C880B990B70
:100980000E949E154B015C01EFA4F8A809A91AA9C1
:100990004F84588869887A88E414F5040605170599
:1009A00009F471C0C301B2010E949E159B01AC0104
:1009B000C501B4010E947D146B017C012B966CADC6
:1009C0007DAD8EAD9FAD2B970E949E159B01AC0116
:1009D000C701B6010E9492166B017C016BA97CA92C
:1009E0008DA99EA90E949E159B01AC01C701B6016D
:1009F0000E94F4146B017C016DA17EA18FA198A5CA
:100A00000E949E159B01AC01C701B6010E947E1495
:100A10006B017C01C301B2010E949E159B01AC01D8
:100A2000C501B4010E947D144B015C012F966CAD91
:100A30007DAD8EAD9FAD2F970E949E159B01AC01A1
:100A4000C501B4010E9492164B015C016BA97CA9FF
:100A50008DA99EA90E949E159B01AC01C501B40100
:100A60000E94F4144B015C0169A57AA58BA59CA595
:100A70000E949E159B01AC01C501B4010E947E1429
:100A80004B015C0105C0C12CD12C760146015701F8
:100A90006DA17EA18FA198A50E949E159B01AC011E
:100AA000C701B6010E947D146B017C0123966CADD9
:100AB0007DAD8EAD9FAD23970E949E159B01AC012D
:100AC000C701B6010E94F4146B017C0169A57AA5E7
:100AD0008BA59CA50E949E159B01AC01C501B4018C
:100AE0000E947D144B015C0127966CAD7DAD8EADEF
:100AF0009FAD27970E949E159B01AC01C501B401D3
:100B00000E94F4144B015C016FA878AC09AD1AADDA
:100B1000061517053CF04BAC5CAC6DAC7EAC4614D6
:100B20005704C4F409811A81201631060CF044C020
:100B3000A701960160E070E080E89FE30E947D14C9
:100B40006B017C0149845A846B847C846414750431
:100B5000C4F016C109811A81201631060CF408C1AF
:100B6000A701960160E070E080E89FE30E947D1499
:100B70006B017C0149845A846B847C846414750401
:100B800014F1A501940160E070E080E89FE30E9409
:100B90007D144B015C01810149805A804214530449
:100BA0000CF4820169807A80261437049CF46981F0
:100BB0007A816219730913C069847A840B851C8554
:100BC00006151705F4F2810149805A804214530436
:100BD0000CF48201B10149805A8064197509072E0D
:100BE000000C880B990B0E949E152B013C01298556
:100BF0003A854B855C854217530724F4B901641B81
:100C0000750B06C06B857C8589859A85681B790B79
:100C1000072E000C880B990B0E949E156B8B7C8B0A
:100C20008D8B9E8BAFA9B8ADEDADFEADAE17BF07F6
:100C300009F08AC029AD3AAD4BAD5CAD241735073C
:100C400009F082C0A7019601C301B2010E94921669
:100C50006B017C01B801110F880B990B0E949E1546
:100C60009B01AC01C701B6010E947E146B017C019F
:100C70004D845E84B201550C880B990B0E949E1521
:100C80002B013C019B01AC01C701B6010E94EA1493
:100C900018160CF459C0A50194016B897C898D89C3
:100CA0009E890E9492164B015C0163966CAD7DADEE
:100CB0008EAD9FAD63970E949E159B01AC01C5014F
:100CC000B4010E947E144B015C01A30192010E94B9
:100CD0008D1687FD39C08D8D9E8D6D817E810B8136
:100CE0001C81601B710B0E9455148B01A70196019A
:100CF000C301B2010E947D1420E030E040EE50E4D8
:100D00000E9492162B013C01A7019601C501B40176
:100D10000E947D149B01AC01C301B2010E94F41436
:100D20000E94661583E0000F111F8A95E1F7600F9E
:100D3000711F660F771FFB01E051FF4F4D856F81DB
:100D4000808191810E94BC130D851E850F5F1F4F0E
:100D50001E870D8707CE0F8118850F5F1F4F1887DD
:100D60000F830D8D1E8D095F1F4F1E8F0D8FCECDF2
:100D700049845A846B847C84641475040CF001CF1C
:100D8000810115CFCE5ADF4F0FB6F894DEBF0FBEEC
:100D9000CDBFDF91CF911F910F91FF90EF90DF902A
:100DA000CF90BF90AF909F908F907F906F905F900B
:100DB0004F903F902F9008954F925F926F927F9245
:100DC000AF92BF92CF92DF92EF92FF920F931F9359
:100DD000CF93DF93CDB7DEB728970FB6F894DEBF79
:100DE0000FBECDBF69837A838B839C8329013A012F
:100DF000ED82FE820F831887C601B5010E947D1423
:100E00006B017C0129813A814B815C816D817E81FE
:100E10008F8198850E947D149B01AC01C701B601AA
:100E20000E94F4146B017C0129813A814B815C8121
:100E3000698D7A8D8B8D9C8D0E947D149B01AC01F8
:100E4000C701B6010E949216A30192010E947E146E
:100E500028960FB6F894DEBF0FBECDBFDF91CF91BD
:100E60001F910F91FF90EF90DF90CF90BF90AF90C8
:100E70007F906F905F904F9008952F923F924F9286
:100E80005F926F927F928F929F92AF92BF92CF921A
:100E9000DF92EF92FF920F931F93CF93DF93CDB723
:100EA000DEB7C058D1090FB6F894DEBF0FBECDBF74
:100EB00063969FAF8EAF639765965FAF4EAF6597B2
:100EC0006BAB7CAB2CE230E02B963FAF2EAF2B9779
:100ED0001EAA1DAAAE01475E5F4F5AA349A38BA964
:100EE0009CA96D969FAF8EAF6D97ACE2B0E0279650
:100EF000BFAFAEAF279718AE1FAA6596AEADBFAD18
:100F00006597ED91FC9186E0EE0FFF1F8A95E1F762
:100F100063966EAD7FAD63976E0F7F1FDB011496F6
:100F20002D913D914D915C911797A1962CAF3DAFBE
:100F30004EAF5FAFA1979C962D913D914D915C91E5
:100F40009F97A5962CAF3DAF4EAF5FAFA597659627
:100F5000EEADFFAD65978281938126E0880F991FE2
:100F60002A95E1F763962EAD3FAD6397280F391FA1
:100F70003AAF29AFD9018D919D910D90BC91A02DD3
:100F8000A9968CAF9DAFAEAFBFAFA997D901989688
:100F90002D913D914D915C919B97AD962CAF3DAFBE
:100FA0004EAF5FAFAD9784819581DC0136E0AA0F2B
:100FB000BB1F3A95E1F76396EEADFFAD6397AE0FB9
:100FC000BF1F14962D913D914D915C911797E1961D
:100FD0002CAF3DAF4EAF5FAFE1979C962D913D9109
:100FE0004D915C919F97E5962CAF3DAF4EAF5FAFB3
:100FF000E5976596EEADFFAD65978681978146E0F2
:10100000880F991F4A95E1F763962EAD3FAD639720
:10101000280F391F3CAF2BAFF9012081318142816C
:101020005381E9962CAF3DAF4EAF5FAFE99720A556
:1010300031A542A553A5ED962CAF3DAF4EAF5FAFA6
:10104000ED978E010F5E1F4F9E012F5F3F4F6796FA
:101050003FAF2EAF67974DA95EA94A0F5B1F5EAFEA
:101060004DAF2B968EAD9FAD2B978A0F9B1F25966C
:101070009FAF8EAF2597ADA9BEA9A60FB71F239628
:10108000BFAFAEAF23972B96EEADFFAD2B97E60F1C
:10109000F71F2196FFAFEEAF21972BAD3CAD4FA9C7
:1010A00058AD240F351F61963FAF2EAF61978BADC2
:1010B0009CAD2796AEADBFAD27978A0F9B1F2F968D
:1010C0009FAF8EAF2F97E9ADFAADE40FF51F2D96C8
:1010D000FFAFEEAF2D9729AD3AAD2A0F3B1F2996F2
:1010E0003FAF2EAF2997212C312C21964EAD5FAD0D
:1010F000219744505109EF965FAF4EAFEF97259679
:101100008EAD9FAD25970497C158DF4F9983888393
:10111000CF57D040A5962CAD3DAD4EAD5FADA59758
:10112000A1966CAD7DAD8EAD9FADA1970E948D1641
:101130001816A4F42396AEADBFAD23972D913D9123
:101140004D915C9113972BA33CA34DA35EA31496E2
:101150002D913D914D915C91179714C0EF96AEADD6
:10116000BFADEF972D913D914D915C912BA33CA389
:101170004DA35EA32196AEADBFAD21972D913D91BC
:101180004D915C912FA338A749A75AA7AD962CADD6
:101190003DAD4EAD5FADAD97A9966CAD7DAD8EAD5D
:1011A0009FADA9970E948D161816C4F42D96AEAD6A
:1011B000BFAD2D972D913D914D915C9113972BA72C
:1011C0003CA74DA75EA714962D913D914D915C9142
:1011D00017972FA738AB49AB5AAB1AC02996EEAD7B
:1011E000FFAD2997349720813181428153812BA70C
:1011F0003CA74DA75EA72996AEADBFAD29978D91AF
:101200009D910D90BC91A02D8FA798ABA9ABBAABC7
:10121000E5962CAD3DAD4EAD5FADE597E1966CAD7D
:101220007DAD8EAD9FADE1970E948D161816A4F48A
:10123000ADADBEAD2D913D914D915C9113976B96E7
:101240002CAF3DAF4EAF5FAF6B9714964D905D9056
:101250006D907C90179718C0C158DF4FA881B98155
:10126000CF57D0402D913D914D915C916B962CAF15
:101270003DAF4EAF5FAF6B972596EEADFFAD2597B7
:101280004080518062807380ED962CAD3DAD4EADB7
:101290005FADED97E9966CAD7DAD8EAD9FADE997F5
:1012A0000E948D16181684F46196AEADBFAD61979D
:1012B000CD90DD90ED90FC90139714968D909D90BD
:1012C000AD90BC90179711C02F96EEADFFAD2F9744
:1012D0003497C080D180E280F3802F96EEADFFADD1
:1012E0002F9780809180A280B3802FA138A549A537
:1012F0005AA5C301B2010E947D142B013C012BA110
:101300003CA14DA15EA16B966CAD7DAD8EAD9FAD48
:101310006B970E947D149B01AC01C301B2010E9436
:10132000F4142B013C012FA538A949A95AA9C501DC
:10133000B4010E947D144B015C012BA53CA54DA579
:101340005EA5C701B6010E947D149B01AC01C501D9
:10135000B4010E94F4146B017C019B01AC016BA5EC
:101360007CA58DA59EA50E9492169B01AC016FA540
:1013700078A989A99AA90E947D144B015C01A30157
:1013800092016BA17CA18DA19EA10E9492169B014E
:10139000AC016FA178A589A59AA50E947D149B0137
:1013A000AC01C501B4010E947D144B015C01A70191
:1013B0009601C301B2010E947D149B01AC01C501DD
:1013C000B4010E94F4146B017C01F801E20DF31DDD
:1013D000608371838283938367966EAC7FAC6797DB
:1013E000620C731C2FA138A549A55AA56FA578A931
:1013F00089A99AA90E947D144B015C012BA13CA1F3
:101400004DA15EA16BA57CA58DA59EA50E947D1416
:101410009B01AC01C501B4010E94F4144B015C01B5
:101420002BA13CA14DA15EA1C701B6010E947D1474
:101430009B01AC01C501B4010E9492162FA138A5F1
:1014400049A55AA50E947E14D3016D937D938D9377
:101450009C931397B8E02B0E311C6196EEADFFAD57
:10146000619738966196FFAFEEAF61972F962EADDC
:101470003FAD2F97285031092F963FAF2EAF2F97B2
:101480002D964EAD5FAD2D97485F5F4F2D965FAFA8
:101490004EAF2D9729968EAD9FAD29970897299627
:1014A0009FAF8EAF299790E12916310409F032CE13
:1014B0000C5F1F4F6796AEADBFAD679714966796EA
:1014C000BFAFAEAF6797EDADFEAD3896FEAFEDAFF7
:1014D00025962EAD3FAD25972850310925963FAF73
:1014E0002EAF259723964EAD5FAD2397485F5F4F94
:1014F00023965FAF4EAF239721968EAD9FAD219778
:10150000089721969FAF8EAF2197A9A1BAA10A177C
:101510001B0709F0C2CD6D96EEADFFAD6D97219022
:1015200031906D96FFAFEEAF6D976D857E858F859F
:1015300098890E9466154B015C016D8D7E8D8F8DA3
:1015400098A10E9466156BA37CA38DA39EA36985B9
:101550007A858B859C850E9466156B017C01698D5F
:101560007A8D8B8D9C8D0E9466156FA378A789A7B5
:101570009AA76D817E818F8198850E9466156BA7E1
:101580007CA78DA79EA76D897E898F89988D0E94E3
:1015900066156FA778AB89AB9AAB69817A818B812D
:1015A0009C810E9466152B013C0169897A898B898F
:1015B0009C890E946615ABA0BCA0EFA0F8A40BA567
:1015C0001CA52FA538A9A201C1010E944C032FA977
:1015D00038AD285F3F4F38AF2FAB27964EAD5FAD8C
:1015E00027974850510927965FAF4EAF279728336A
:1015F000310509F082CC8BA99CA940969CAB8BABA2
:10160000ADA9BEA91896BEABADAB2B96EEADFFADA6
:101610002B9738972B96FFAFEEAF2B97D89709F003
:101620005ECCC058DF4F0FB6F894DEBF0FBECDBF03
:10163000DF91CF911F910F91FF90EF90DF90CF90AE
:10164000BF90AF909F908F907F906F905F904F90E2
:101650003F902F9008952F923F924F925F926F92FA
:101660007F928F929F92AF92BF92CF92DF92EF9232
:10167000FF920F931F93CF93DF93CDB7DEB7C05C7C
:10168000D1090FB6F894DEBF0FBECDBFCF57DF4FE5
:101690008882C158D040CE57DF4F9882C258D04080
:1016A000CD57DF4FA882C358D040CC57DF4FB88208
:1016B000C458D040CB57DF4FC882C558D040CA5716
:1016C000DF4FD882C658D040C957DF4FE882C7588D
:1016D000D040C857DF4FF882C858D040C757DF4FB7
:1016E0000883C958D040C657DF4F1883CA58D04026
:1016F000C557DF4F2883CB58D040C457DF4F3883BE
:10170000CC58D040C357DF4F4883CD58D040C25744
:10171000DF4F5883CE58D040C157DF4F6883CF5832
:10172000D040C057DF4F7883C059D040CF56DF4FED
:101730008883C159D040CE56DF4F9883C259D040DC
:10174000CD57DF4FE880F980C358D040CB57DF4FEB
:1017500008811981C558D040C957DF4F6881798108
:10176000C758D040072E000C880B990B0E949E157D
:1017700020E030E040E05FE30E949216C755DF4F63
:10178000688379838A839B83C95AD040C557DF4FCA
:1017900068817981CB58D040072E000C880B990BBB
:1017A0000E949E1520E030E040E05FE30E94921628
:1017B000C356DF4F688379838A839B83CD59D0409A
:1017C000C757DF4F68817981C958D040072E000C78
:1017D000880B990B0E949E1520E030E040E05FE30B
:1017E0000E949216CF55DF4F688379838A839B834B
:1017F000C15AD040CF57DF4F68817981C158D0405E
:10180000072E000C880B990B0E949E152B013C01A2
:10181000C755DF4F288139814A815B81C95AD04041
:101820000E947D144B015C0169837A838B839C83C6
:10183000B701FF0C880B990B0E949E156B017C0170
:10184000C356DF4F288139814A815B81CD59D04011
:101850000E947D14CB56DF4F688379838A839B83F4
:10186000C559D0406D837E838F839887B801110F4F
:10187000880B990B0E949E15CB55DF4F68837983A7
:101880008A839B83C55AD040CF55DF4F2881398149
:101890004A815B81C15AD0400E947D14C756DF4FF8
:1018A000688379838A839B83C959D04069877A8703
:1018B0008B879C87A3019201C755DF4F688179818F
:1018C0008A819B81C95AD0400E947E142B013C0121
:1018D0006D877E878F87988BCB56DF4F2881398124
:1018E0004A815B81C559D040298B3A8B4B8B5C8BED
:1018F000C756DF4F88819981AA81BB81C959D040E1
:101900008D8B9E8BAF8BB88F898E9A8EAB8EBC8E53
:10191000A7019601C356DF4F688179818A819B8137
:10192000CD59D0400E947E146B017C016D8F7E8F5B
:101930008F8F98A3C756DF4F288139814A815B81F9
:10194000C959D04029A33AA34BA35CA34DA25EA2E0
:101950006FA278A669A77AA78BA79CA72DA73EA7F9
:101960004FA758AB89AA9AAAABAABCAACB56DF4FFD
:1019700088819981AA81BB81C559D0408DAB9EAB2E
:10198000AFABB8AFCB55DF4F288139814A815B813E
:10199000C55AD040CF55DF4F688179818A819B81BC
:1019A000C15AD0400E947E1469AF7AAF8BAF9CAF12
:1019B00021964CAE5DAE6EAE7FAE2197CB56DF4F1B
:1019C000288139814A815B81C559D04025962CAF49
:1019D0003DAF4EAF5FAF259729966CAF7DAF8EAF11
:1019E0009FAF29972D968CAE9DAEAEAEBFAE2D9714
:1019F0006196CCAEDDAEEEAEFFAE619765966CAF94
:101A00007DAF8EAF9FAF659769964CAE5DAE6EAE03
:101A10007FAE69976D96CCAEDDAEEEAEFFAE6D9744
:101A2000A1966CAF7DAF8EAF9FAFA1972BED3FE03E
:101A300049E450E460914A0370914B0380914C0358
:101A400090914D030E94921620E030E044E353E46D
:101A50000E94F4144B015C012BED3FE049E450E49B
:101A60006091460370914703809148039091490328
:101A70000E94921620E030E044E353E40E94F41404
:101A80006B017C018091800190918101A091820184
:101A9000B0918301CB56DF4F88839983AA83BB83A0
:101AA000C559D040209152033091530340915403C3
:101AB00050915503C756DF4F288339834A835B8390
:101AC000C959D04080914E0390914F03A09150038B
:101AD000B0915103CB55DF4F88839983AA83BB8391
:101AE000C55AD040C501B4010E94EF14C356DF4F60
:101AF000688379838A839B83CD59D040C501B40123
:101B00000E94FF16CF55DF4F688379838A839B83BA
:101B1000C15AD040C701B6010E94EF14C355DF4F30
:101B2000688379838A839B83CD5AD040C701B601ED
:101B30000E94FF16CF54DF4F688379838A839B838B
:101B4000C15BD040DE0111961D01FE01EF59FF4F30
:101B5000CD56DF4FF983E883C359D0408D01CB5672
:101B6000DF4F288139814A815B81C559D040D80136
:101B70006D917D918D919C910E947D146B017C01F2
:101B8000C756DF4F288139814A815B81C959D040CE
:101B9000F80164817581868197810E947D14CB5400
:101BA000DF4F688379838A839B83C55BD040CB55A5
:101BB000DF4F288139814A815B81C55AD040D801E5
:101BC00018966D917D918D919C911B970E947D142B
:101BD0002B013C01C356DF4F288139814A815B814B
:101BE000CD59D040CB54DF4F688179818A819B8168
:101BF000C55BD0400E9492164B015C01CF55DF4F70
:101C0000288139814A815B81C15AD040C301B20128
:101C10000E9492169B01AC01C501B4010E947D1483
:101C20004B015C01C355DF4F288139814A815B81BB
:101C3000CD5AD0400E949216C754DF4F68837983F3
:101C40008A839B83C95BD040C355DF4F288139818C
:101C50004A815B81CD5AD040C701B6010E949216DD
:101C6000C354DF4F688379838A839B83CD5BD040E5
:101C7000CF54DF4F288139814A815B81C15BD040DD
:101C8000C501B4010E9492169B01AC01C354DF4F01
:101C9000688179818A819B81CD5BD0400E947D14CF
:101CA000CB56DF4F288139814A815B81C559D040AD
:101CB0000E947E14F8016083718382839383CF54E2
:101CC000DF4F288139814A815B81C15BD040C701E8
:101CD000B6010E949216C754DF4F288139814A818C
:101CE0005B81C95BD0400E947E14C756DF4F2881BC
:101CF00039814A815B81C959D0400E947E14D80144
:101D000014966D937D938D939C931797CF55DF4FCA
:101D1000288139814A815B81C15AD040CB54DF4F41
:101D2000688179818A819B81C55BD0400E9492162F
:101D30006B017C01C356DF4F288139814A815B8169
:101D4000CD59D040C301B2010E9492169B01AC0153
:101D5000C701B6010E947E14CB55DF4F288139811F
:101D60004A815B81C55AD0400E947E14F801608789
:101D7000718782879387045F1F4FCD56DF4F28817D
:101D80003981C359D0402017310709F0E8CE80913E
:101D90004203909143038E010F591F4FC755DF4FE8
:101DA000288139814A815B81C95AD0405058C75532
:101DB000DF4F288339834A835B83C95AD0409C0113
:101DC000990F440B550BCF55DF4F288339834A8336
:101DD0005B83C15AD040CB56DF4F288139814A817D
:101DE0005B81C559D040D1016D917D918D919C91C0
:101DF0000E947D142B013C01C756DF4F2881398199
:101E00004A815B81C959D040F10164817581868125
:101E100097810E947D146B017C01CB55DF4F288197
:101E200039814A815B81C55AD040D10118966D91A4
:101E30007D918D919C911B970E947D14C356DF4F1D
:101E4000688379838A839B83CD59D040C755DF4F00
:101E5000288139814A815B81C95AD040C701B601C6
:101E60000E94EA1487FDA4C020E030E0A901C70168
:101E7000B6010E94EA14882371F020E030E0A90145
:101E8000C701B6010E94EA1487FF0CC0F7FAF0946C
:101E9000F7F8F09407C04DECC42E4CECD42EED2C8A
:101EA0004DE3F42ECF55DF4F688179818A819B8184
:101EB000C15AD0400E949E154B015C019B01AC01B0
:101EC000C301B2010E949216A70196010E94F41468
:101ED00020E030E040E852E40E947E140E94661543
:101EE000F80171836083A5019401C356DF4F6881B7
:101EF00079818A819B81CD59D0400E949216A70199
:101F000096010E94F41420E030E040E052E40E9488
:101F10007E140E946615D80113967C936E931297D7
:101F2000BCE02B0E311C0C5F1F4FCD56DF4FE881FC
:101F3000F981C359D040E215F30509F04CCF20ECEC
:101F4000E22E20E0F22E30EFC32E30E0D32EF70148
:101F5000A281B38140815181AA0FBB1FAA0FBB1F71
:101F600021E630E02C0F3D1FA20FB31F12960D91FA
:101F70001C9113972D913C91FA01EE0FFF1FEE0F6C
:101F8000FF1F41E650E04C0F5D1FE40FF51F42813B
:101F90005381608171818FEF9FEF0E94110154E0A6
:101FA000E50EF11CCE14DF0491F680E090E002C053
:101FB0008FEF9FEFC054DF4F0FB6F894DEBF0FBE18
:101FC000CDBFDF91CF911F910F91FF90EF90DF90E8
:101FD000CF90BF90AF909F908F907F906F905F90C9
:101FE0004F903F902F9008954F925F926F927F9203
:101FF0008F929F92AF92BF92CF92DF92EF92FF9219
:102000000F931F93CF93DF937C013B012AE630E0CF
:1020100042E150E00E94BE17E701412C512C4614CA
:1020200057040CF061C060914E0370914F03809192
:102030005003909151030E9466156B017C016091E1
:1020400052037091530380915403909155030E9461
:1020500066154B015C016091800170918101809156
:102060008201909183010E9466154C815D81EA8115
:10207000FB81760184019B01BF01888199810E94C7
:102080000D036B017C018091740190917501889F13
:10209000B001899F700D700D1124072E000C880B64
:1020A000990B0E949E159B01AC01C701B6010E94CD
:1020B000EA1487FF14C088809980AA80BB80CC80F6
:1020C000DD80EE80FF80088519852A853B854C855B
:1020D0005D856E857F85888999890E942B0B8FEF9E
:1020E000481A580A62969BCFDF91CF911F910F91AA
:1020F000FF90EF90DF90CF90BF90AF909F908F9028
:102100007F906F905F904F9008950F9300E220E8CA
:1021100040E060E082E096E80E94EF1320E840E2B1
:1021200060E08DEB96E70E94EF1380E090E00F9166
:1021300008952F923F924F925F926F927F928F926B
:102140009F92AF92BF92CF92DF92EF92FF920F9346
:102150001F93CF93DF93CDB7DEB7C25ED3400FB6E8
:10216000F894DEBF0FBECDBF60914E0370914F0358
:1021700080915003909151030E9466154B0160912C
:1021800052037091530380915403909155030E9420
:1021900066152B016091800170918101809182010F
:1021A000909183010E9466151B0184E8A82E81E0AE
:1021B000B82ECE0101966C01FE01E152FC4FC152D6
:1021C000DC4FF983E883CF5DD340CF51DC4F888368
:1021D000C15ED340CE51DC4FD882C25ED34094E67C
:1021E000692E712CF50120813181F4E6F29FC00146
:1021F000F39F900D1124F60191838083F5012281D4
:102200003381F4E6F29FB001F39F700D1124F601C3
:1022100073836283F50124813581F4E6F29FA00186
:10222000F39F500D1124F601558344837186608617
:102230007782668273866286F50126813781F60190
:10224000318B208B7401820191010E940D03F601F4
:102250006487758786879787F8E0AF0EB11C42E1E7
:10226000C40ED11CC152DC4F88819981CF5DD3400F
:10227000C816D90609F0B6CF67E370E0CF51DC4F3E
:102280008881C15ED340CE51DC4F9881C25ED3407D
:102290000E94F40F80E090E0CE51DC4F0FB6F8942E
:1022A000DEBF0FBECDBFDF91CF911F910F91FF9089
:1022B000EF90DF90CF90BF90AF909F908F907F90E6
:1022C0006F905F904F903F902F900895CF93DF9342
:1022D000CDB7DEB762970FB6F894DEBF0FBECDBFA5
:1022E00020E030E040E05FE36091700170917101A7
:1022F00080917201909173010E9492162BED3FE044
:1023000049E450E40E94921620E030E044E353E4B4
:102310000E94F4140E9407179B01AC0160E070E07A
:1023200080E892E40E94F4140E94661570934303BF
:102330006093420384E6782E612C9AEA492E9BE949
:10234000592E0E9485107B866C865A8A498A609134
:102350004E0370914F0380915003909151030E945E
:1023600066156B017C01609152037091530380915B
:102370005403909155030E9466154B015C016091D6
:1023800080017091810180918201909183010E946E
:102390006615760184019B0140E050E064E670E040
:1023A00084E690E00E940D036D877E878F87988B6F
:1023B0000E941314082F10E00032110509F055C0D7
:1023C00060917E0170917F01072E000C880B990BA4
:1023D0000E949E156B017C012BED3FE049E450E427
:1023E000609146037091470380914803909149039F
:1023F0000E94921620E030E044E353E40E94F4147B
:102400004B015C010E94FF169B01AC01C701B601A4
:102410000E9492169B01AC01609180017091810134
:1024200080918201909183010E947E1460938001CB
:10243000709381018093820190938301C501B4015F
:102440000E94EF149B01AC01C701B6010E949216D5
:102450009B01AC016091520370915303809154032E
:10246000909155030E947E1458C00038110509F060
:102470005DC060917E0170917F01072E000C880B7A
:10248000990B0E949E156B017C012BED3FE049E406
:1024900050E4609146037091470380914803909106
:1024A00049030E94921620E030E044E353E40E9486
:1024B000F4144B015C010E94FF169B01AC01C701A3
:1024C000B6010E9492169B01AC016091800170914F
:1024D000810180918201909183010E947D1460931B
:1024E0008001709381018093820190938301C501E3
:1024F000B4010E94EF149B01AC01C701B6010E9418
:1025000092169B01AC01609152037091530380912C
:102510005403909155030E947D146093520370936D
:1025200053038093540390935503D4C00034110592
:1025300009F055C060917E0170917F01072E000C5B
:10254000880B990B0E949E156B017C012BED3FE0DF
:1025500049E450E460914603709147038091480339
:10256000909149030E94921620E030E044E353E446
:102570000E94F4144B015C010E94EF149B01AC011A
:10258000C701B6010E9492169B01AC0160918001C7
:102590007091810180918201909183010E947D144C
:1025A00060938001709381018093820190938301F5
:1025B000C501B4010E94FF169B01AC01C701B60121
:1025C0000E9492169B01AC016091520370915303DB
:1025D00080915403909155030E947E1458C000319D
:1025E000110509F05DC060917E0170917F01072E99
:1025F000000C880B990B0E949E154B015C012BED82
:102600003FE049E450E460914603709147038091B4
:102610004803909149030E94921620E030E044E381
:1026200053E40E94F4146B017C010E94EF149B019F
:10263000AC01C501B4010E9492169B01AC016091EE
:1026400080017091810180918201909183010E94AB
:102650007E14609380017093810180938201909336
:102660008301C701B6010E94FF169B01AC01C501A1
:10267000B4010E9492169B01AC01609152037091CB
:10268000530380915403909155030E947D146093ED
:1026900052037093530380935403909355033BC0AC
:1026A00004301105B9F460917E0170917F01072E0D
:1026B000000C880B990B0E949E159B01AC01609148
:1026C0004E0370914F0380915003909151030E94EB
:1026D0007E1419C008301105F1F460917E017091EB
:1026E0007F01072E000C880B990B0E949E159B0101
:1026F000AC0160914E0370914F0380915003909113
:1027000051030E947D1460934E0370934F03809396
:102710005003909351032FEF89EF90E021508040B8
:102720009040E1F700C00000872C79826A82A72CD4
:102730007B826C821E821D82E72C7F826886072D39
:1027400079866A86962CB62CC12CDE80F62C162D46
:102750002B853C854D855E856F85788989899A8929
:102760000E942B0BEECD08959FEF97BB94BB9CEF7F
:1027700091BB92E09ABB089579B371707150E1F703
:1027800072E095BB7BBB772785BB7BBB440F440FB7
:1027900042BB606868BB78BB72BB75BB72E07BBB39
:1027A00077277BBB089572E095BB7BBB772785BB02
:1027B0007BBB9927882779B371707150E1F782BB91
:1027C000905898BB905898BB93959038A1F799274B
:1027D000772775BB8C3F11F08C5FEDCF089572E0C9
:1027E00095BB7BBB772785BB7BBB962F842F592F4F
:1027F000520F880F880F000F000F382F300F79B35A
:1028000071707150E1F782BB905898BB905898BB9B
:1028100093959517A1F79927772775BB831714F41C
:102820008C5FEDCF089589B38C7F0895722F761B4E
:10283000502F541B70381CF071953FEF01C031E0F0
:1028400050381CF051951FEF01C011E0F72EF51A1A
:10285000D52ED194621779F00E94BC13EF2CEE0CA8
:10286000ED141CF07E1524F0F5CF630FF51AFACFA6
:10287000410FF70EEFCF401779F7089587E6809361
:10288000090090E09093200088E180930A00089569
:1028900090910B0080930C0008950E94B41380E087
:1028A00090E00E94D3130E94661197FB072E16F446
:1028B000009407D077FD09D00E94691407FC05D069
:1028C0003EF4909581959F4F0895709561957F4F47
:1028D0000895AA1BBB1B51E107C0AA1FBB1FA61767
:1028E000B70710F0A61BB70B881F991F5A95A9F7B9
:1028F00080959095BC01CD0108955058BB27AA271B
:102900000E9495140C943F160E94061638F00E94FF
:102910000D1620F039F49F3F19F426F40C94031699
:102920000EF4E095E7FB0C94FD15E92F0E94641668
:1029300058F3BA17620773078407950720F079F4F4
:10294000A6F50C9486160EF4E0950B2EBA2FA02D4A
:102950000B01B90190010C01CA01A0011124FF274C
:10296000591B99F0593F50F4503E68F11A16F04047
:10297000A22F232F342F4427585FF3CF4695379546
:102980002795A795F0405395C9F77EF41F16BA0B0B
:10299000620B730B840BBAF09150A1F0FF0FBB1FB9
:1029A000661F771F881FC2F70EC0BA0F621F731F02
:1029B000841F48F4879577956795B795F7959E3F5F
:1029C00008F0B0CF9395880F08F09927EE0F9795F0
:1029D000879508950E94D91508F481E008950E9412
:1029E0001616E3950C9450160E9408150C943F1689
:1029F0000E940D1658F00E94061640F029F45F3F21
:102A000029F00C94FD1551110C9487160C940316A3
:102A10000E94641668F39923B1F3552391F3951B33
:102A2000550BBB27AA2762177307840738F09F5FEF
:102A30005F4F220F331F441FAA1FA9F335D00E2E5C
:102A40003AF0E0E832D091505040E695001CCAF7C9
:102A50002BD0FE2F29D0660F771F881FBB1F26178C
:102A600037074807AB07B0E809F0BB0B802DBF0163
:102A7000FF2793585F4F3AF09E3F510578F00C9432
:102A8000FD150C9487165F3FE4F3983ED4F38695CA
:102A900077956795B795F7959F5FC9F7880F911D53
:102AA0009695879597F90895E1E0660F771F881F3F
:102AB000BB1F621773078407BA0720F0621B730BF2
:102AC000840BBA0BEE1F88F7E09508950E946D15F0
:102AD0006894B1110C94871608950E946C1688F0C2
:102AE0009F5798F0B92F9927B751B0F0E1F0660FD2
:102AF000771F881F991F1AF0BA95C9F714C0B13013
:102B000091F00E948616B1E008950C948616672F06
:102B1000782F8827B85F39F0B93FCCF38695779541
:102B20006795B395D9F73EF490958095709561952A
:102B30007F4F8F4F9F4F0895E89409C097FB3EF455
:102B400090958095709561957F4F8F4F9F4F9923FA
:102B5000A9F0F92F96E9BB279395F6958795779578
:102B60006795B795F111F8CFFAF4BB0F11F460FF38
:102B70001BC06F5F7F4F8F4F9F4F16C0882311F090
:102B800096E911C0772321F09EE8872F762F05C0A4
:102B9000662371F096E8862F70E060E02AF09A953F
:102BA000660F771F881FDAF7880F9695879597F934
:102BB0000895990F0008550FAA0BE0E8FEEF1616CE
:102BC0001706E807F907C0F012161306E407F50721
:102BD00098F0621B730B840B950B39F40A2661F095
:102BE000232B242B252B21F408950A2609F4A14038
:102BF000A6958FEF811D811D089597F99F6780E845
:102C000070E060E008959FEF80EC089500240A943E
:102C10001616170618060906089500240A941216B7
:102C200013061406050608950C9403160E946C16EC
:102C3000D8F3E894E0E0BB279F57F0F02AED3FE09F
:102C400049EC06C0EE0FBB0F661F771F881F28F0E8
:102C5000B23A62077307840728F0B25A620B730B0B
:102C6000840BE3959A9572F7803830F49A95BB0FF0
:102C7000661F771F881FD2F790480C942E17092ED5
:102C80000394000C11F4882352F0BB0F40F4BF2BC7
:102C900011F460FF04C06F5F7F4F8F4F9F4F089507
:102CA000EF93E0FF07C0A2EA2AED3FE049EC5FEBBB
:102CB0000E9495140E943F160F90039401FC9058B7
:102CC000E4E5F0E00C943A1757FD9058440F551F77
:102CD00059F05F3F71F04795880F97FB991F61F09E
:102CE0009F3F79F087950895121613061406551F15
:102CF000F2CF4695F1DF08C0161617061806991F81
:102D0000F1CF86957105610508940895E894BB2775
:102D100066277727CB0197F908950E94D91508F403
:102D20008FEF08950E94A5160C943F160E94061678
:102D300038F00E940D1620F0952311F00C94FD152B
:102D40000C94031611240C9487160E94641670F3D9
:102D5000959FC1F3950F50E0551F629FF001729F40
:102D6000BB27F00DB11D639FAA27F00DB11DAA1F4F
:102D7000649F6627B00DA11D661F829F2227B00D9C
:102D8000A11D621F739FB00DA11D621F839FA00D27
:102D9000611D221F749F3327A00D611D231F849F77
:102DA000600D211D822F762F6A2F11249F575040CE
:102DB0009AF0F1F088234AF0EE0FFF1FBB1F661F49
:102DC000771F881F91505040A9F79E3F510580F012
:102DD0000C94FD150C9487165F3FE4F3983ED4F3F2
:102DE000869577956795B795F795E7959F5FC1F7B6
:102DF000FE2B880F911D9695879597F908959F93BF
:102E00000E9416160F9007FCEE5F0C945016DF938D
:102E1000D92F0E941616E695D7952AED3FE049E492
:102E20005FE3B33A6207730784079507D7953AF0D3
:102E3000A2EA49EC90680E9495140E943F16E2E7CE
:102E4000F0E00E943A17DD0F13F00E944E17DD0FDD
:102E50000BF49058DF9108959F3F31F0915020F48A
:102E6000879577956795B795880F911D9695879566
:102E700097F908959F938F937F936F93FF93EF93A9
:102E80009B01AC010E949216EF91FF910E94561790
:102E90002F913F914F915F910C9492169B01AC0141
:102EA00060E070E080E89FE30C94F414DF93CF932C
:102EB0001F930F93FF92EF92DF927B018C01689436
:102EC00006C0DA2EEF010E94A516FE01E894A59136
:102ED0002591359145915591A6F3EF010E949514E6
:102EE000FE019701A801DA9469F7DF90EF90FF9057
:102EF0000F911F91CF91DF910895DC01FB018C911F
:102F000090819D9381934150510914161506BCF38D
:102F10000895A0E0B0E0EFE8F7E10C946C197C01B3
:102F20006B01D42FC52F8901F90109956D2F7C2FD5
:102F300097FF10C0C601F801099597FF02C0C601AE
:102F400018C06D2F7C2FC701F801099597FD0FC0A0
:102F5000C7010FC0C601F8010995181619067CF3C0
:102F60006D2F7C2FC701F801099597FDF1CF8D2FAB
:102F70009C2FCDB7DEB7E8E00C948819AAE0B0E04A
:102F8000E4ECF7E10C9462198C017B015A874987C4
:102F9000690129853A85200F311F3A83298337E05B
:102FA000E316F10470F569807A8049855A85E49EBC
:102FB0005001E59EB00CF49EB00C1124A00EB11E81
:102FC0006A147B0408F07AC173010E151F0528F0FE
:102FD00089859A85680E791EF3CF4701E985FA85C0
:102FE0008E1A9F0AB701C401F60109951816190631
:102FF0007CF749855A85B401C7010E947D17740189
:10300000E4CFC7019695879529853A85829F50011F
:10301000839FB00C929FB00C1124A00EB11EA7018B
:10302000415051095C834B8357E0E516F10409F4E4
:103030004CC08B819C81829F3001839F700C929F3A
:10304000700C1124600E711E99E2E916F104A8F1CA
:10305000C70143E0969587954A95E1F7829F400125
:10306000839F900C929F900C11241401220C331C0E
:10307000A801420D531DB801680D791D9601C801C4
:103080000E9489172C01A501480D591D9194819426
:1030900091089601B501C501880D991D0E948917F7
:1030A0005C01B301680D791D9601A301C30182196A
:1030B00093090E9489173C0101C028019601A301D0
:1030C000B501C2010E9489175C0149855A85B50185
:1030D000C8010E947D1769807A802B813C814985D7
:1030E0005A85249FF001259FF00D349FF00D112487
:1030F000FE83ED835F01A00EB11E460D571D5C835C
:103100004B83250113011A8219828B809C8089854B
:103110009A85881A990AA814B90408F450C0B8010D
:10312000C401F601099518161906C4F1892B71F42A
:1031300049855A85B401C1010E947D1789859A8508
:10314000280E391EE1E0F0E0FA83E9832B813C810F
:1031500049855A85240F351F3C832B83D6CFB80170
:10316000C501F6010995950149855A85241B350B42
:1031700038872F8397FD16C0892B71F449855A85AE
:10318000B201C5010E947D1729853A85421A530A6A
:1031900041E050E05A834983AF80B884A814B90451
:1031A000F0F60DC049855A85B501C4010E947D170E
:1031B000AF80B88441E050E05A834983C7CF89810A
:1031C0009A81892B09F44FC06D807E8029853A85CC
:1031D000620E731E600E711E7401E218F308A101E5
:1031E000401B510BE416F5060CF4A7011416150646
:1031F00034F4B401641B750BC8010E947D17A20151
:103200004A195B095A01A3014419550989859A8510
:10321000481B590BA416B50608F4A501141615068B
:1032200034F4B301641B750BC4010E947D17E9855A
:10323000FA85EE15FF0548F4C701BF010E94691425
:103240009601AF01C8010E94BE1729853A852A154B
:103250003B05A0F583010A191B09C501B9010E94AC
:1032600069147B0196CEE985FA85EE9E5001EF9EAA
:10327000B00CFE9EB00C1124A00EB11E6A147B048B
:10328000E8F473010E151F0528F089859A85680EEC
:10329000791EF4CF4701E985FA858E1A9F0AB70196
:1032A000C401F6010995181619067CF749855A8557
:1032B000B401C7010E947D177401E4CF2A96E2E1B0
:1032C0000C947E192F923F924F925F926F927F9251
:1032D0008F929F92AF92BF92CF92DF92EF92FF9226
:1032E0000F931F93CF93DF93CDB7DEB7CA1BDB0BD2
:1032F0000FB6F894DEBF0FBECDBF09942A88398877
:1033000048885F846E847D848C849B84AA84B9847D
:10331000C884DF80EE80FD800C811B81AA81B98189
:10332000CE0FD11D0FB6F894DEBF0FBECDBFED019D
:063330000895F894FFCFA0
:10333600000001000200030004000500060007006B
:10334600000009000400080001000A000500090049
:1033560002000B0006000A000300080007000B002D
:10336600000001000300020004000500070006003B
:10337600020003000700060000000100050004002B
:10338600010003000700050000000200060004001B
:10339600000001000100030002000300020000001B
:1033A60004000500050007000600070006000400EB
:1033B60000000400010005000200060003000700EB
:1033C600A77AA77A6993E5592BBCA77A699369937B
:1033D600A77AE559E559E559E559E559E559A77A31
:1033E600E55969936993E559A77AE559A77A2BBCFC
:1033F600A77A2BBC6993A77AE5596993A77A69934B
:103406006993A77AE559A77AA77AA77A2BBC699315
:10341600A77A69932BBC69936993A77A6993E5594F
:103426006993A77AA77A6993E559E5592BBC6993FD
:10343600A77A6993A77AA77A6993A77A6993E559D0
:103446000000A042D0070A00F6FFFF0F5000200040
:1034560000002041010007000100AA9B01000600B0
:103466000100AA9B010005000100AA9B01000400BF
:103476000100AA9B010003000100AA9B01000700AE
:10348600FFFFAA9B01000600FFFFAA9B01000500A3
:10349600FFFFAA9B01000400FFFFAA9B0100030097
:1034A600FFFFAA9B050007000100AA9B0500060076
:1034B6000100AA9B050005000100AA9B0500040067
:1034C6000100AA9B050003000100AA9B0500070056
:1034D600FFFFAA9B05000600FFFFAA9B050005004B
:1034E600FFFFAA9B05000400FFFFAA9B050003003F
:1034F600FFFFAA9B04000700FFFFAA9B040006002B
:10350600FFFFAA9B04000500FFFFAA9B040004001E
:10351600FFFFAA9B04000300FFFFAA9B030007000E
:10352600FFFFAA9B03000600FFFFAA9B03000500FE
:10353600FFFFAA9B03000400FFFFAA9B03000300F2
:10354600FFFFAA9B02000700FFFFAA9B02000600DE
:10355600FFFFAA9B02000500FFFFAA9B02000400D2
:10356600FFFFAA9B02000300FFFFAA9B02000700C1
:103576000100AA9B030007000100AA9B04000700A4
:103586000100AA9B020003000100AA9B040003009D
:103596000100AA9B010007000000AA9B010006008B
:1035A6000000AA9B010005000000AA9B0100040080
:1035B6000000AA9B010003000000AA9B0200030072
:1035C6000000AA9B040003000000AA9B020007005B
:1035D6000000AA9B030007000000AA9B0400070046
:1035E6000000AA9B050007000000AA9B0500060034
:1035F6000000AA9B050005000000AA9B0500040028
:0C3606000000AA9B050003000000AA9B26
:00000001FF
