:020000020000FC
:100000000FEF07BB04BB01BB02E00ABB0E94260046
:1000100008950C9409000FEF1FEF21E031E049B380
:1000200041704150C1F742E005BB4BBB442715BBB3
:100030004BBB205828BB22BB48BB42BB45BB42E060
:100040004BBB44274BBB0C940900089522E000E011
:1000500010E005BB2BBB222715BB2BBB00271127AC
:1000600029B321702150E1F712BB005808BB00589A
:1000700008BB03950038A1F70027222725BB1C3FAA
:0C00800011F01C5FEDCF0C9409000895F6
:00000001FF
